{
  "fileName": "VerifiedExistence.sol",
  "contractName": "VerifiedExistence",
  "source": "pragma solidity ^0.6.0;\r\n\r\nimport \"./ERC721.sol\";\r\nimport \"./AccessControl.sol\";\r\n\r\n/**\r\n * @title Proof of existence by storing hashes. Based on ERC721.\r\n * The proof record is an ERC721 token, therefore it is referred to as token or proof.\r\n */\r\ncontract VerifiedExistence is ERC721, AccessControl {\r\n    using EnumerableSet for EnumerableSet.AddressSet;\r\n\r\n    struct ProofMetadata {\r\n        bytes32 hash; // hash of the proof\r\n        uint256 timestamp; // time of adding it\r\n        string description; // user given description\r\n    }\r\n    \r\n    bytes32 public constant PROOF_WHITELISTED = keccak256(\"PROOF_WHITELISTED\");\r\n    bytes32 public constant CONFIRM_WHITELISTED = keccak256(\"CONFIRM_WHITELISTED\");\r\n    \r\n    /* highest issued ID, used for minting. Ever increasing.\r\n     * @dev ID 0 is not used and signifies non-existent token.\r\n    */\r\n    uint256 private _highestID;\r\n    \r\n    // Mapping from proof ID to the proof  metadata\r\n    mapping (uint256 => ProofMetadata) private _proofMetadata;\r\n    \r\n    // Mapping from proof ID to the proof confirmations\r\n    mapping (uint256 => EnumerableSet.AddressSet) private _proofConfirmations;\r\n    \r\n    // Mapping from hash in token metadata to token ID\r\n    mapping (bytes32 => uint256) private _hashesToTokens;\r\n\r\n    event ProofAdded(bytes32 hash, string description, uint256 timestamp, uint256 proofId, address owner);   \r\n    event ProofConfirmed(uint256 proofId, address confirmer);\r\n\r\n    constructor () public {\r\n        // make the contarct deployer the admin of all user access.\r\n        _setupRole(DEFAULT_ADMIN_ROLE, msg.sender);\r\n    }\r\n\r\n    /**\r\n     * @dev Mints a new token and adds provided metadata\r\n     * @param proofHash bytes32 the proof has to store. Must not be 0 or already exist.\r\n     * @param description string description of the proof\r\n     * @return uint256 id of the new proof/token\r\n     */\r\n    function addProof(address to, bytes32 proofHash, string memory description) public returns (uint256) {\r\n        require(hasRole(PROOF_WHITELISTED, msg.sender), \"VerifiedExistence: you are not permitted to add a proof\");        \r\n        require(proofHash != 0x0, \"VerifiedExistence: proof hash can't be zero\");\r\n        require(getProofIdByHash(proofHash) == 0, \"VerifiedExistence: this proof hash already exists\");\r\n        // does not require SafeMath as the increment is the only operation on _highestID\r\n        _highestID++;\r\n        _safeMint(to, _highestID);\r\n        uint256 timestamp = now;\r\n        _proofMetadata[_highestID] = ProofMetadata(proofHash, timestamp, description);\r\n        _hashesToTokens[proofHash] = _highestID;\r\n        emit ProofAdded(proofHash, description, timestamp, _highestID, to);\r\n        return _highestID;\r\n    }\r\n\r\n    /**\r\n     * @dev Burns a specific ERC721 token.\r\n     * @param tokenId uint256 id of the ERC721 token to be burned.\r\n     */\r\n    function deleteProof(uint256 tokenId) public {\r\n        require(_isApprovedOrOwner(msg.sender, tokenId), \"VerifiedExistence: burn caller is not owner nor approved\");\r\n        _burn(tokenId);\r\n        delete _hashesToTokens[_proofMetadata[tokenId].hash];\r\n        delete _proofMetadata[tokenId];\r\n        delete _proofConfirmations[tokenId];\r\n    }\r\n    \r\n    /**\r\n     * @dev Finds ID of a proof by its hash.\r\n     * @param proofHash bytes32 the proof hash the find.\r\n     * @return uint256 token ID. 0 if it does not exist.\r\n     */\r\n    function getProofIdByHash(bytes32 proofHash) public view returns (uint256) {\r\n        return _hashesToTokens[proofHash];\r\n    }    \r\n    \r\n    /**\r\n     * @dev Returns metadata of a proof\r\n     * @param tokenId uint256 id of the ERC721 token.\r\n     * @return (bytes32, uint256, string memory)(bytes32, uint256, string) hash, timestamp, description of the proof\r\n     */\r\n    function getProofData(uint256 tokenId) public view returns (bytes32, uint256, string memory) {\r\n        require(_exists(tokenId), \"VerifiedExistence: proof by this id does not exist\");\r\n        ProofMetadata storage data = _proofMetadata[tokenId];\r\n        return (data.hash, data.timestamp, data.description);\r\n    }\r\n\r\n    /**\r\n     * @dev Adds a confirmation to a proof. Address needs to be whitelisted for it. Can only confirm once.\r\n     * @param tokenId uint256 id of the ERC721 token\r\n     */\r\n    function addConfirmation(uint256 tokenId) public {\r\n        require(_exists(tokenId), \"VerifiedExistence: proof by this id does not exist\");\r\n        require(hasRole(CONFIRM_WHITELISTED, msg.sender), \"VerifiedExistence: you are not permitted to confirm a proof\");        \r\n        require(_proofConfirmations[tokenId].contains(msg.sender) == false, \"VerifiedExistence: you have already confirmed this proof\");\r\n        _proofConfirmations[tokenId].add(msg.sender);\r\n        emit ProofConfirmed(tokenId, msg.sender);\r\n    }\r\n\r\n    /**\r\n     * @dev Returns number of confirmations of a proof\r\n     * @param tokenId uint256 id of the ERC721 token.\r\n     * @return uint256 number of confirmations on the proof\r\n     */\r\n    function getProofConfirmationCount(uint256 tokenId) public view returns (uint256) {\r\n        require(_exists(tokenId), \"VerifiedExistence: proof by this id does not exist\");\r\n        return _proofConfirmations[tokenId].length();\r\n    }\r\n    \r\n    /**\r\n     * @dev Check whether an address confirmed given proof\r\n     * @param tokenId uint256 id of the ERC721 token\r\n     * @param confirmer address the address being inquired about\r\n     * @return bool true if address confirmed proof with tokenId\r\n     */\r\n    function isConfirmedBy(uint256 tokenId, address confirmer) public view returns (bool) {\r\n        require(_exists(tokenId), \"VerifiedExistence: proof by this id does not exist\");\r\n        return _proofConfirmations[tokenId].contains(confirmer);\r\n    }\r\n}\r\n",
  "sourcePath": "contracts/VerifiedExistence.sol",
  "abi": [
    {
      "inputs": [],
      "stateMutability": "nonpayable",
      "type": "constructor"
    },
    {
      "anonymous": false,
      "inputs": [
        {
          "indexed": true,
          "internalType": "address",
          "name": "owner",
          "type": "address"
        },
        {
          "indexed": true,
          "internalType": "address",
          "name": "approved",
          "type": "address"
        },
        {
          "indexed": true,
          "internalType": "uint256",
          "name": "tokenId",
          "type": "uint256"
        }
      ],
      "name": "Approval",
      "type": "event"
    },
    {
      "anonymous": false,
      "inputs": [
        {
          "indexed": true,
          "internalType": "address",
          "name": "owner",
          "type": "address"
        },
        {
          "indexed": true,
          "internalType": "address",
          "name": "operator",
          "type": "address"
        },
        {
          "indexed": false,
          "internalType": "bool",
          "name": "approved",
          "type": "bool"
        }
      ],
      "name": "ApprovalForAll",
      "type": "event"
    },
    {
      "anonymous": false,
      "inputs": [
        {
          "indexed": false,
          "internalType": "bytes32",
          "name": "hash",
          "type": "bytes32"
        },
        {
          "indexed": false,
          "internalType": "string",
          "name": "description",
          "type": "string"
        },
        {
          "indexed": false,
          "internalType": "uint256",
          "name": "timestamp",
          "type": "uint256"
        },
        {
          "indexed": false,
          "internalType": "uint256",
          "name": "proofId",
          "type": "uint256"
        },
        {
          "indexed": false,
          "internalType": "address",
          "name": "owner",
          "type": "address"
        }
      ],
      "name": "ProofAdded",
      "type": "event"
    },
    {
      "anonymous": false,
      "inputs": [
        {
          "indexed": false,
          "internalType": "uint256",
          "name": "proofId",
          "type": "uint256"
        },
        {
          "indexed": false,
          "internalType": "address",
          "name": "confirmer",
          "type": "address"
        }
      ],
      "name": "ProofConfirmed",
      "type": "event"
    },
    {
      "anonymous": false,
      "inputs": [
        {
          "indexed": true,
          "internalType": "bytes32",
          "name": "role",
          "type": "bytes32"
        },
        {
          "indexed": true,
          "internalType": "address",
          "name": "account",
          "type": "address"
        },
        {
          "indexed": true,
          "internalType": "address",
          "name": "sender",
          "type": "address"
        }
      ],
      "name": "RoleGranted",
      "type": "event"
    },
    {
      "anonymous": false,
      "inputs": [
        {
          "indexed": true,
          "internalType": "bytes32",
          "name": "role",
          "type": "bytes32"
        },
        {
          "indexed": true,
          "internalType": "address",
          "name": "account",
          "type": "address"
        },
        {
          "indexed": true,
          "internalType": "address",
          "name": "sender",
          "type": "address"
        }
      ],
      "name": "RoleRevoked",
      "type": "event"
    },
    {
      "anonymous": false,
      "inputs": [
        {
          "indexed": true,
          "internalType": "address",
          "name": "from",
          "type": "address"
        },
        {
          "indexed": true,
          "internalType": "address",
          "name": "to",
          "type": "address"
        },
        {
          "indexed": true,
          "internalType": "uint256",
          "name": "tokenId",
          "type": "uint256"
        }
      ],
      "name": "Transfer",
      "type": "event"
    },
    {
      "inputs": [],
      "name": "CONFIRM_WHITELISTED",
      "outputs": [
        {
          "internalType": "bytes32",
          "name": "",
          "type": "bytes32"
        }
      ],
      "stateMutability": "view",
      "type": "function"
    },
    {
      "inputs": [],
      "name": "DEFAULT_ADMIN_ROLE",
      "outputs": [
        {
          "internalType": "bytes32",
          "name": "",
          "type": "bytes32"
        }
      ],
      "stateMutability": "view",
      "type": "function"
    },
    {
      "inputs": [],
      "name": "PROOF_WHITELISTED",
      "outputs": [
        {
          "internalType": "bytes32",
          "name": "",
          "type": "bytes32"
        }
      ],
      "stateMutability": "view",
      "type": "function"
    },
    {
      "inputs": [
        {
          "internalType": "uint256",
          "name": "tokenId",
          "type": "uint256"
        }
      ],
      "name": "addConfirmation",
      "outputs": [],
      "stateMutability": "nonpayable",
      "type": "function"
    },
    {
      "inputs": [
        {
          "internalType": "address",
          "name": "to",
          "type": "address"
        },
        {
          "internalType": "bytes32",
          "name": "proofHash",
          "type": "bytes32"
        },
        {
          "internalType": "string",
          "name": "description",
          "type": "string"
        }
      ],
      "name": "addProof",
      "outputs": [
        {
          "internalType": "uint256",
          "name": "",
          "type": "uint256"
        }
      ],
      "stateMutability": "nonpayable",
      "type": "function"
    },
    {
      "inputs": [
        {
          "internalType": "address",
          "name": "to",
          "type": "address"
        },
        {
          "internalType": "uint256",
          "name": "tokenId",
          "type": "uint256"
        }
      ],
      "name": "approve",
      "outputs": [],
      "stateMutability": "nonpayable",
      "type": "function"
    },
    {
      "inputs": [
        {
          "internalType": "address",
          "name": "owner",
          "type": "address"
        }
      ],
      "name": "balanceOf",
      "outputs": [
        {
          "internalType": "uint256",
          "name": "",
          "type": "uint256"
        }
      ],
      "stateMutability": "view",
      "type": "function"
    },
    {
      "inputs": [
        {
          "internalType": "uint256",
          "name": "tokenId",
          "type": "uint256"
        }
      ],
      "name": "deleteProof",
      "outputs": [],
      "stateMutability": "nonpayable",
      "type": "function"
    },
    {
      "inputs": [
        {
          "internalType": "uint256",
          "name": "tokenId",
          "type": "uint256"
        }
      ],
      "name": "getApproved",
      "outputs": [
        {
          "internalType": "address",
          "name": "",
          "type": "address"
        }
      ],
      "stateMutability": "view",
      "type": "function"
    },
    {
      "inputs": [
        {
          "internalType": "uint256",
          "name": "tokenId",
          "type": "uint256"
        }
      ],
      "name": "getProofConfirmationCount",
      "outputs": [
        {
          "internalType": "uint256",
          "name": "",
          "type": "uint256"
        }
      ],
      "stateMutability": "view",
      "type": "function"
    },
    {
      "inputs": [
        {
          "internalType": "uint256",
          "name": "tokenId",
          "type": "uint256"
        }
      ],
      "name": "getProofData",
      "outputs": [
        {
          "internalType": "bytes32",
          "name": "",
          "type": "bytes32"
        },
        {
          "internalType": "uint256",
          "name": "",
          "type": "uint256"
        },
        {
          "internalType": "string",
          "name": "",
          "type": "string"
        }
      ],
      "stateMutability": "view",
      "type": "function"
    },
    {
      "inputs": [
        {
          "internalType": "bytes32",
          "name": "proofHash",
          "type": "bytes32"
        }
      ],
      "name": "getProofIdByHash",
      "outputs": [
        {
          "internalType": "uint256",
          "name": "",
          "type": "uint256"
        }
      ],
      "stateMutability": "view",
      "type": "function"
    },
    {
      "inputs": [
        {
          "internalType": "bytes32",
          "name": "role",
          "type": "bytes32"
        }
      ],
      "name": "getRoleAdmin",
      "outputs": [
        {
          "internalType": "bytes32",
          "name": "",
          "type": "bytes32"
        }
      ],
      "stateMutability": "view",
      "type": "function"
    },
    {
      "inputs": [
        {
          "internalType": "bytes32",
          "name": "role",
          "type": "bytes32"
        },
        {
          "internalType": "uint256",
          "name": "index",
          "type": "uint256"
        }
      ],
      "name": "getRoleMember",
      "outputs": [
        {
          "internalType": "address",
          "name": "",
          "type": "address"
        }
      ],
      "stateMutability": "view",
      "type": "function"
    },
    {
      "inputs": [
        {
          "internalType": "bytes32",
          "name": "role",
          "type": "bytes32"
        }
      ],
      "name": "getRoleMemberCount",
      "outputs": [
        {
          "internalType": "uint256",
          "name": "",
          "type": "uint256"
        }
      ],
      "stateMutability": "view",
      "type": "function"
    },
    {
      "inputs": [
        {
          "internalType": "bytes32",
          "name": "role",
          "type": "bytes32"
        },
        {
          "internalType": "address",
          "name": "account",
          "type": "address"
        }
      ],
      "name": "grantRole",
      "outputs": [],
      "stateMutability": "nonpayable",
      "type": "function"
    },
    {
      "inputs": [
        {
          "internalType": "bytes32",
          "name": "role",
          "type": "bytes32"
        },
        {
          "internalType": "address",
          "name": "account",
          "type": "address"
        }
      ],
      "name": "hasRole",
      "outputs": [
        {
          "internalType": "bool",
          "name": "",
          "type": "bool"
        }
      ],
      "stateMutability": "view",
      "type": "function"
    },
    {
      "inputs": [
        {
          "internalType": "address",
          "name": "owner",
          "type": "address"
        },
        {
          "internalType": "address",
          "name": "operator",
          "type": "address"
        }
      ],
      "name": "isApprovedForAll",
      "outputs": [
        {
          "internalType": "bool",
          "name": "",
          "type": "bool"
        }
      ],
      "stateMutability": "view",
      "type": "function"
    },
    {
      "inputs": [
        {
          "internalType": "uint256",
          "name": "tokenId",
          "type": "uint256"
        },
        {
          "internalType": "address",
          "name": "confirmer",
          "type": "address"
        }
      ],
      "name": "isConfirmedBy",
      "outputs": [
        {
          "internalType": "bool",
          "name": "",
          "type": "bool"
        }
      ],
      "stateMutability": "view",
      "type": "function"
    },
    {
      "inputs": [
        {
          "internalType": "uint256",
          "name": "tokenId",
          "type": "uint256"
        }
      ],
      "name": "ownerOf",
      "outputs": [
        {
          "internalType": "address",
          "name": "",
          "type": "address"
        }
      ],
      "stateMutability": "view",
      "type": "function"
    },
    {
      "inputs": [
        {
          "internalType": "bytes32",
          "name": "role",
          "type": "bytes32"
        },
        {
          "internalType": "address",
          "name": "account",
          "type": "address"
        }
      ],
      "name": "renounceRole",
      "outputs": [],
      "stateMutability": "nonpayable",
      "type": "function"
    },
    {
      "inputs": [
        {
          "internalType": "bytes32",
          "name": "role",
          "type": "bytes32"
        },
        {
          "internalType": "address",
          "name": "account",
          "type": "address"
        }
      ],
      "name": "revokeRole",
      "outputs": [],
      "stateMutability": "nonpayable",
      "type": "function"
    },
    {
      "inputs": [
        {
          "internalType": "address",
          "name": "from",
          "type": "address"
        },
        {
          "internalType": "address",
          "name": "to",
          "type": "address"
        },
        {
          "internalType": "uint256",
          "name": "tokenId",
          "type": "uint256"
        }
      ],
      "name": "safeTransferFrom",
      "outputs": [],
      "stateMutability": "nonpayable",
      "type": "function"
    },
    {
      "inputs": [
        {
          "internalType": "address",
          "name": "from",
          "type": "address"
        },
        {
          "internalType": "address",
          "name": "to",
          "type": "address"
        },
        {
          "internalType": "uint256",
          "name": "tokenId",
          "type": "uint256"
        },
        {
          "internalType": "bytes",
          "name": "_data",
          "type": "bytes"
        }
      ],
      "name": "safeTransferFrom",
      "outputs": [],
      "stateMutability": "nonpayable",
      "type": "function"
    },
    {
      "inputs": [
        {
          "internalType": "address",
          "name": "operator",
          "type": "address"
        },
        {
          "internalType": "bool",
          "name": "approved",
          "type": "bool"
        }
      ],
      "name": "setApprovalForAll",
      "outputs": [],
      "stateMutability": "nonpayable",
      "type": "function"
    },
    {
      "inputs": [
        {
          "internalType": "bytes4",
          "name": "interfaceId",
          "type": "bytes4"
        }
      ],
      "name": "supportsInterface",
      "outputs": [
        {
          "internalType": "bool",
          "name": "",
          "type": "bool"
        }
      ],
      "stateMutability": "view",
      "type": "function"
    },
    {
      "inputs": [
        {
          "internalType": "uint256",
          "name": "index",
          "type": "uint256"
        }
      ],
      "name": "tokenByIndex",
      "outputs": [
        {
          "internalType": "uint256",
          "name": "",
          "type": "uint256"
        }
      ],
      "stateMutability": "view",
      "type": "function"
    },
    {
      "inputs": [
        {
          "internalType": "address",
          "name": "owner",
          "type": "address"
        },
        {
          "internalType": "uint256",
          "name": "index",
          "type": "uint256"
        }
      ],
      "name": "tokenOfOwnerByIndex",
      "outputs": [
        {
          "internalType": "uint256",
          "name": "",
          "type": "uint256"
        }
      ],
      "stateMutability": "view",
      "type": "function"
    },
    {
      "inputs": [],
      "name": "totalSupply",
      "outputs": [
        {
          "internalType": "uint256",
          "name": "",
          "type": "uint256"
        }
      ],
      "stateMutability": "view",
      "type": "function"
    },
    {
      "inputs": [
        {
          "internalType": "address",
          "name": "from",
          "type": "address"
        },
        {
          "internalType": "address",
          "name": "to",
          "type": "address"
        },
        {
          "internalType": "uint256",
          "name": "tokenId",
          "type": "uint256"
        }
      ],
      "name": "transferFrom",
      "outputs": [],
      "stateMutability": "nonpayable",
      "type": "function"
    }
  ],
  "bytecode": "0x60806040523480156200001157600080fd5b506200002a6301ffc9a760e01b6200008d60201b60201c565b620000426380ac58cd60e01b6200008d60201b60201c565b6200005a635b5e139f60e01b6200008d60201b60201c565b6200007263780e9d6360e01b6200008d60201b60201c565b620000876000801b336200019660201b60201c565b62000316565b63ffffffff60e01b817bffffffffffffffffffffffffffffffffffffffffffffffffffffffff191614156200012a576040517f08c379a000000000000000000000000000000000000000000000000000000000815260040180806020018281038252601c8152602001807f4552433136353a20696e76616c696420696e746572666163652069640000000081525060200191505060405180910390fd5b6001600080837bffffffffffffffffffffffffffffffffffffffffffffffffffffffff19167bffffffffffffffffffffffffffffffffffffffffffffffffffffffff1916815260200190815260200160002060006101000a81548160ff02191690831515021790555050565b620001a88282620001ac60201b60201c565b5050565b620001db81600660008581526020019081526020016000206000016200024160201b62001ffb1790919060201c565b156200023d573373ffffffffffffffffffffffffffffffffffffffff168173ffffffffffffffffffffffffffffffffffffffff16837f2f8788117e7eff1d82e926ec794901d17c78024a50270940304540a733656f0d60405160405180910390a45b5050565b600062000271836000018373ffffffffffffffffffffffffffffffffffffffff1660001b6200027960201b60201c565b905092915050565b60006200028d8383620002f360201b60201c565b620002e8578260000182908060018154018082558091505060019003906000526020600020016000909190919091505582600001805490508360010160008481526020019081526020016000208190555060019050620002ed565b600090505b92915050565b600080836001016000848152602001908152602001600020541415905092915050565b61386780620003266000396000f3fe608060405234801561001057600080fd5b50600436106101da5760003560e01c806370a0823111610104578063a2ee0c45116100a2578063d63ed56b11610071578063d63ed56b14610b2e578063da65045414610b70578063e985e9c514610c25578063ff98726914610ca1576101da565b8063a2ee0c4514610957578063b88d4fde14610999578063ca15c87314610a9e578063d547741f14610ae0576101da565b80639010d07c116100de5780639010d07c1461080b57806391d1485414610883578063a217fddf146108e9578063a22cb46514610907576101da565b806370a0823114610654578063762cbbc3146106ac5780638a8e784c146107a5576101da565b8063248a9ca31161017c5780633cd041331161014b5780633cd041331461051857806342842e0e146105365780634f6ccce7146105a45780636352211e146105e6576101da565b8063248a9ca3146103d85780632f2ff15d1461041a5780632f745c591461046857806336568abe146104ca576101da565b8063143ee5ed116101b8578063143ee5ed1461030057806318160ddd1461031e5780631c0ec8541461033c57806323b872dd1461036a576101da565b806301ffc9a7146101df578063081812fc14610244578063095ea7b3146102b2575b600080fd5b61022a600480360360208110156101f557600080fd5b8101908080357bffffffffffffffffffffffffffffffffffffffffffffffffffffffff19169060200190929190505050610ccf565b604051808215151515815260200191505060405180910390f35b6102706004803603602081101561025a57600080fd5b8101908080359060200190929190505050610d36565b604051808273ffffffffffffffffffffffffffffffffffffffff1673ffffffffffffffffffffffffffffffffffffffff16815260200191505060405180910390f35b6102fe600480360360408110156102c857600080fd5b81019080803573ffffffffffffffffffffffffffffffffffffffff16906020019092919080359060200190929190505050610dd1565b005b610308610f07565b6040518082815260200191505060405180910390f35b610326610f40565b6040518082815260200191505060405180910390f35b6103686004803603602081101561035257600080fd5b8101908080359060200190929190505050610f51565b005b6103d66004803603606081101561038057600080fd5b81019080803573ffffffffffffffffffffffffffffffffffffffff169060200190929190803573ffffffffffffffffffffffffffffffffffffffff16906020019092919080359060200190929190505050611158565b005b610404600480360360208110156103ee57600080fd5b81019080803590602001909291905050506111c7565b6040518082815260200191505060405180910390f35b6104666004803603604081101561043057600080fd5b8101908080359060200190929190803573ffffffffffffffffffffffffffffffffffffffff1690602001909291905050506111e7565b005b6104b46004803603604081101561047e57600080fd5b81019080803573ffffffffffffffffffffffffffffffffffffffff1690602001909291908035906020019092919050505061126a565b6040518082815260200191505060405180910390f35b610516600480360360408110156104e057600080fd5b8101908080359060200190929190803573ffffffffffffffffffffffffffffffffffffffff1690602001909291905050506112c5565b005b610520611357565b6040518082815260200191505060405180910390f35b6105a26004803603606081101561054c57600080fd5b81019080803573ffffffffffffffffffffffffffffffffffffffff169060200190929190803573ffffffffffffffffffffffffffffffffffffffff16906020019092919080359060200190929190505050611390565b005b6105d0600480360360208110156105ba57600080fd5b81019080803590602001909291905050506113b0565b6040518082815260200191505060405180910390f35b610612600480360360208110156105fc57600080fd5b81019080803590602001909291905050506113d3565b604051808273ffffffffffffffffffffffffffffffffffffffff1673ffffffffffffffffffffffffffffffffffffffff16815260200191505060405180910390f35b6106966004803603602081101561066a57600080fd5b81019080803573ffffffffffffffffffffffffffffffffffffffff16906020019092919050505061140a565b6040518082815260200191505060405180910390f35b61078f600480360360608110156106c257600080fd5b81019080803573ffffffffffffffffffffffffffffffffffffffff169060200190929190803590602001909291908035906020019064010000000081111561070957600080fd5b82018360208201111561071b57600080fd5b8035906020019184600183028401116401000000008311171561073d57600080fd5b91908080601f016020809104026020016040519081016040528093929190818152602001838380828437600081840152601f19601f8201169050808301925050505050505091929192905050506114df565b6040518082815260200191505060405180910390f35b6107f1600480360360408110156107bb57600080fd5b8101908080359060200190929190803573ffffffffffffffffffffffffffffffffffffffff1690602001909291905050506117ca565b604051808215151515815260200191505060405180910390f35b6108416004803603604081101561082157600080fd5b810190808035906020019092919080359060200190929190505050611857565b604051808273ffffffffffffffffffffffffffffffffffffffff1673ffffffffffffffffffffffffffffffffffffffff16815260200191505060405180910390f35b6108cf6004803603604081101561089957600080fd5b8101908080359060200190929190803573ffffffffffffffffffffffffffffffffffffffff169060200190929190505050611889565b604051808215151515815260200191505060405180910390f35b6108f16118bb565b6040518082815260200191505060405180910390f35b6109556004803603604081101561091d57600080fd5b81019080803573ffffffffffffffffffffffffffffffffffffffff1690602001909291908035151590602001909291905050506118c2565b005b6109836004803603602081101561096d57600080fd5b8101908080359060200190929190505050611a65565b6040518082815260200191505060405180910390f35b610a9c600480360360808110156109af57600080fd5b81019080803573ffffffffffffffffffffffffffffffffffffffff169060200190929190803573ffffffffffffffffffffffffffffffffffffffff1690602001909291908035906020019092919080359060200190640100000000811115610a1657600080fd5b820183602082011115610a2857600080fd5b80359060200191846001830284011164010000000083111715610a4a57600080fd5b91908080601f016020809104026020016040519081016040528093929190818152602001838380828437600081840152601f19601f820116905080830192505050505050509192919290505050611a82565b005b610aca60048036036020811015610ab457600080fd5b8101908080359060200190929190505050611af3565b6040518082815260200191505060405180910390f35b610b2c60048036036040811015610af657600080fd5b8101908080359060200190929190803573ffffffffffffffffffffffffffffffffffffffff169060200190929190505050611b1a565b005b610b5a60048036036020811015610b4457600080fd5b8101908080359060200190929190505050611b9d565b6040518082815260200191505060405180910390f35b610b9c60048036036020811015610b8657600080fd5b8101908080359060200190929190505050611c1f565b6040518084815260200183815260200180602001828103825283818151815260200191508051906020019080838360005b83811015610be8578082015181840152602081019050610bcd565b50505050905090810190601f168015610c155780820380516001836020036101000a031916815260200191505b5094505050505060405180910390f35b610c8760048036036040811015610c3b57600080fd5b81019080803573ffffffffffffffffffffffffffffffffffffffff169060200190929190803573ffffffffffffffffffffffffffffffffffffffff169060200190929190505050611d51565b604051808215151515815260200191505060405180910390f35b610ccd60048036036020811015610cb757600080fd5b8101908080359060200190929190505050611de5565b005b6000806000837bffffffffffffffffffffffffffffffffffffffffffffffffffffffff19167bffffffffffffffffffffffffffffffffffffffffffffffffffffffff1916815260200190815260200160002060009054906101000a900460ff169050919050565b6000610d4182611ee0565b610d96576040517f08c379a000000000000000000000000000000000000000000000000000000000815260040180806020018281038252602c8152602001806136b7602c913960400191505060405180910390fd5b6004600083815260200190815260200160002060009054906101000a900473ffffffffffffffffffffffffffffffffffffffff169050919050565b6000610ddc826113d3565b90508073ffffffffffffffffffffffffffffffffffffffff168373ffffffffffffffffffffffffffffffffffffffff161415610e63576040517f08c379a000000000000000000000000000000000000000000000000000000000815260040180806020018281038252602181526020018061377f6021913960400191505060405180910390fd5b8073ffffffffffffffffffffffffffffffffffffffff163373ffffffffffffffffffffffffffffffffffffffff161480610ea35750610ea28133611d51565b5b610ef8576040517f08c379a00000000000000000000000000000000000000000000000000000000081526004018080602001828103825260388152602001806135d26038913960400191505060405180910390fd5b610f028383611efd565b505050565b60405180807f50524f4f465f57484954454c49535445440000000000000000000000000000008152506011019050604051809103902081565b6000610f4c6002611fb6565b905090565b610f5a81611ee0565b610faf576040517f08c379a00000000000000000000000000000000000000000000000000000000081526004018080602001828103825260328152602001806137d16032913960400191505060405180910390fd5b610fee60405180807f434f4e4649524d5f57484954454c4953544544000000000000000000000000008152506013019050604051809103902033611889565b611043576040517f08c379a000000000000000000000000000000000000000000000000000000000815260040180806020018281038252603b8152602001806136e3603b913960400191505060405180910390fd5b6000151561106c3360096000858152602001908152602001600020611fcb90919063ffffffff16565b1515146110c4576040517f08c379a000000000000000000000000000000000000000000000000000000000815260040180806020018281038252603881526020018061360a6038913960400191505060405180910390fd5b6110e93360096000848152602001908152602001600020611ffb90919063ffffffff16565b507fa8c434f6319d01b2b5541d7f2d5e0ebcde45324c87e4b5f1542d48fc830749358133604051808381526020018273ffffffffffffffffffffffffffffffffffffffff1673ffffffffffffffffffffffffffffffffffffffff1681526020019250505060405180910390a150565b611162338261202b565b6111b7576040517f08c379a00000000000000000000000000000000000000000000000000000000081526004018080602001828103825260318152602001806137a06031913960400191505060405180910390fd5b6111c283838361211f565b505050565b600060066000838152602001908152602001600020600201549050919050565b611207600660008481526020019081526020016000206002015433611889565b61125c576040517f08c379a000000000000000000000000000000000000000000000000000000000815260040180806020018281038252602f81526020018061345e602f913960400191505060405180910390fd5b6112668282612362565b5050565b60006112bd82600160008673ffffffffffffffffffffffffffffffffffffffff1673ffffffffffffffffffffffffffffffffffffffff1681526020019081526020016000206123ef90919063ffffffff16565b905092915050565b3373ffffffffffffffffffffffffffffffffffffffff168173ffffffffffffffffffffffffffffffffffffffff1614611349576040517f08c379a000000000000000000000000000000000000000000000000000000000815260040180806020018281038252602f815260200180613803602f913960400191505060405180910390fd5b6113538282612409565b5050565b60405180807f434f4e4649524d5f57484954454c4953544544000000000000000000000000008152506013019050604051809103902081565b6113ab83838360405180602001604052806000815250611a82565b505050565b6000806113c783600261249690919063ffffffff16565b50905080915050919050565b60006114038260405180606001604052806029815260200161366c6029913960026124c59092919063ffffffff16565b9050919050565b60008073ffffffffffffffffffffffffffffffffffffffff168273ffffffffffffffffffffffffffffffffffffffff161415611491576040517f08c379a000000000000000000000000000000000000000000000000000000000815260040180806020018281038252602a815260200180613642602a913960400191505060405180910390fd5b6114d8600160008473ffffffffffffffffffffffffffffffffffffffff1673ffffffffffffffffffffffffffffffffffffffff1681526020019081526020016000206124e4565b9050919050565b600061152060405180807f50524f4f465f57484954454c49535445440000000000000000000000000000008152506011019050604051809103902033611889565b611575576040517f08c379a00000000000000000000000000000000000000000000000000000000081526004018080602001828103825260378152602001806134ea6037913960400191505060405180910390fd5b6000801b8314156115d1576040517f08c379a000000000000000000000000000000000000000000000000000000000815260040180806020018281038252602b81526020018061348d602b913960400191505060405180910390fd5b60006115dc84611a65565b14611632576040517f08c379a00000000000000000000000000000000000000000000000000000000081526004018080602001828103825260318152602001806135216031913960400191505060405180910390fd5b600760008154809291906001019190505550611650846007546124f9565b6000429050604051806060016040528085815260200182815260200184815250600860006007548152602001908152602001600020600082015181600001556020820151816001015560408201518160020190805190602001906116b5929190613308565b50905050600754600a6000868152602001908152602001600020819055507fb2ba9a7de5f55d3a1781ce7a043d5beacef4fee52b0d80e3d4f5302c3883d1ad8484836007548960405180868152602001806020018581526020018481526020018373ffffffffffffffffffffffffffffffffffffffff1673ffffffffffffffffffffffffffffffffffffffff168152602001828103825286818151815260200191508051906020019080838360005b8381101561177f578082015181840152602081019050611764565b50505050905090810190601f1680156117ac5780820380516001836020036101000a031916815260200191505b50965050505050505060405180910390a16007549150509392505050565b60006117d583611ee0565b61182a576040517f08c379a00000000000000000000000000000000000000000000000000000000081526004018080602001828103825260328152602001806137d16032913960400191505060405180910390fd5b61184f8260096000868152602001908152602001600020611fcb90919063ffffffff16565b905092915050565b6000611881826006600086815260200190815260200160002060000161251790919063ffffffff16565b905092915050565b60006118b38260066000868152602001908152602001600020600001611fcb90919063ffffffff16565b905092915050565b6000801b81565b3373ffffffffffffffffffffffffffffffffffffffff168273ffffffffffffffffffffffffffffffffffffffff161415611964576040517f08c379a00000000000000000000000000000000000000000000000000000000081526004018080602001828103825260198152602001807f4552433732313a20617070726f766520746f2063616c6c65720000000000000081525060200191505060405180910390fd5b80600560003373ffffffffffffffffffffffffffffffffffffffff1673ffffffffffffffffffffffffffffffffffffffff16815260200190815260200160002060008473ffffffffffffffffffffffffffffffffffffffff1673ffffffffffffffffffffffffffffffffffffffff16815260200190815260200160002060006101000a81548160ff0219169083151502179055508173ffffffffffffffffffffffffffffffffffffffff163373ffffffffffffffffffffffffffffffffffffffff167f17307eab39ab6107e8899845ad3d59bd9653f200f220920489ca2b5937696c3183604051808215151515815260200191505060405180910390a35050565b6000600a6000838152602001908152602001600020549050919050565b611a8c338361202b565b611ae1576040517f08c379a00000000000000000000000000000000000000000000000000000000081526004018080602001828103825260318152602001806137a06031913960400191505060405180910390fd5b611aed84848484612531565b50505050565b6000611b13600660008481526020019081526020016000206000016125a3565b9050919050565b611b3a600660008481526020019081526020016000206002015433611889565b611b8f576040517f08c379a00000000000000000000000000000000000000000000000000000000081526004018080602001828103825260308152602001806135a26030913960400191505060405180910390fd5b611b998282612409565b5050565b6000611ba882611ee0565b611bfd576040517f08c379a00000000000000000000000000000000000000000000000000000000081526004018080602001828103825260328152602001806137d16032913960400191505060405180910390fd5b611c18600960008481526020019081526020016000206125a3565b9050919050565b6000806060611c2d84611ee0565b611c82576040517f08c379a00000000000000000000000000000000000000000000000000000000081526004018080602001828103825260328152602001806137d16032913960400191505060405180910390fd5b60006008600086815260200190815260200160002090508060000154816001015482600201808054600181600116156101000203166002900480601f016020809104026020016040519081016040528092919081815260200182805460018160011615610100020316600290048015611d3c5780601f10611d1157610100808354040283529160200191611d3c565b820191906000526020600020905b815481529060010190602001808311611d1f57829003601f168201915b50505050509050935093509350509193909250565b6000600560008473ffffffffffffffffffffffffffffffffffffffff1673ffffffffffffffffffffffffffffffffffffffff16815260200190815260200160002060008373ffffffffffffffffffffffffffffffffffffffff1673ffffffffffffffffffffffffffffffffffffffff16815260200190815260200160002060009054906101000a900460ff16905092915050565b611def338261202b565b611e44576040517f08c379a00000000000000000000000000000000000000000000000000000000081526004018080602001828103825260388152602001806137476038913960400191505060405180910390fd5b611e4d816125b8565b600a60006008600084815260200190815260200160002060000154815260200190815260200160002060009055600860008281526020019081526020016000206000808201600090556001820160009055600282016000611eae9190613388565b505060096000828152602001908152602001600020600080820160008082016000611ed991906133d0565b5050505050565b6000611ef68260026126a390919063ffffffff16565b9050919050565b816004600083815260200190815260200160002060006101000a81548173ffffffffffffffffffffffffffffffffffffffff021916908373ffffffffffffffffffffffffffffffffffffffff160217905550808273ffffffffffffffffffffffffffffffffffffffff16611f70836113d3565b73ffffffffffffffffffffffffffffffffffffffff167f8c5be1e5ebec7d5bd14f71427d1e84f3dd0314c0f7b2291e5b200ac8c7c3b92560405160405180910390a45050565b6000611fc4826000016126bd565b9050919050565b6000611ff3836000018373ffffffffffffffffffffffffffffffffffffffff1660001b6126ce565b905092915050565b6000612023836000018373ffffffffffffffffffffffffffffffffffffffff1660001b6126f1565b905092915050565b600061203682611ee0565b61208b576040517f08c379a000000000000000000000000000000000000000000000000000000000815260040180806020018281038252602c815260200180613576602c913960400191505060405180910390fd5b6000612096836113d3565b90508073ffffffffffffffffffffffffffffffffffffffff168473ffffffffffffffffffffffffffffffffffffffff16148061210557508373ffffffffffffffffffffffffffffffffffffffff166120ed84610d36565b73ffffffffffffffffffffffffffffffffffffffff16145b8061211657506121158185611d51565b5b91505092915050565b8273ffffffffffffffffffffffffffffffffffffffff1661213f826113d3565b73ffffffffffffffffffffffffffffffffffffffff16146121ab576040517f08c379a000000000000000000000000000000000000000000000000000000000815260040180806020018281038252602981526020018061371e6029913960400191505060405180910390fd5b600073ffffffffffffffffffffffffffffffffffffffff168273ffffffffffffffffffffffffffffffffffffffff161415612231576040517f08c379a00000000000000000000000000000000000000000000000000000000081526004018080602001828103825260248152602001806135526024913960400191505060405180910390fd5b61223c838383612761565b612247600082611efd565b61229881600160008673ffffffffffffffffffffffffffffffffffffffff1673ffffffffffffffffffffffffffffffffffffffff16815260200190815260200160002061276690919063ffffffff16565b506122ea81600160008573ffffffffffffffffffffffffffffffffffffffff1673ffffffffffffffffffffffffffffffffffffffff16815260200190815260200160002061278090919063ffffffff16565b506123018183600261279a9092919063ffffffff16565b50808273ffffffffffffffffffffffffffffffffffffffff168473ffffffffffffffffffffffffffffffffffffffff167fddf252ad1be2c89b69c2b068fc378daa952ba7f163c4a11628f55a4df523b3ef60405160405180910390a4505050565b61238a8160066000858152602001908152602001600020600001611ffb90919063ffffffff16565b156123eb573373ffffffffffffffffffffffffffffffffffffffff168173ffffffffffffffffffffffffffffffffffffffff16837f2f8788117e7eff1d82e926ec794901d17c78024a50270940304540a733656f0d60405160405180910390a45b5050565b60006123fe83600001836127cf565b60001c905092915050565b612431816006600085815260200190815260200160002060000161285290919063ffffffff16565b15612492573373ffffffffffffffffffffffffffffffffffffffff168173ffffffffffffffffffffffffffffffffffffffff16837ff6391f5c32d9c69d2a47ea670b442974b53935d1edc7fd64eb21e047a839171b60405160405180910390a45b5050565b6000806000806124a98660000186612882565b915091508160001c8160001c8090509350935050509250929050565b60006124d8846000018460001b8461291b565b60001c90509392505050565b60006124f282600001612a11565b9050919050565b612513828260405180602001604052806000815250612a22565b5050565b600061252683600001836127cf565b60001c905092915050565b61253c84848461211f565b61254884848484612a93565b61259d576040517f08c379a00000000000000000000000000000000000000000000000000000000081526004018080602001828103825260328152602001806134b86032913960400191505060405180910390fd5b50505050565b60006125b182600001612a11565b9050919050565b60006125c3826113d3565b90506125d181600084612761565b6125dc600083611efd565b61262d82600160008473ffffffffffffffffffffffffffffffffffffffff1673ffffffffffffffffffffffffffffffffffffffff16815260200190815260200160002061276690919063ffffffff16565b50612642826002612daf90919063ffffffff16565b5081600073ffffffffffffffffffffffffffffffffffffffff168273ffffffffffffffffffffffffffffffffffffffff167fddf252ad1be2c89b69c2b068fc378daa952ba7f163c4a11628f55a4df523b3ef60405160405180910390a45050565b60006126b5836000018360001b612dc9565b905092915050565b600081600001805490509050919050565b600080836001016000848152602001908152602001600020541415905092915050565b60006126fd83836126ce565b61275657826000018290806001815401808255809150506001900390600052602060002001600090919091909150558260000180549050836001016000848152602001908152602001600020819055506001905061275b565b600090505b92915050565b505050565b6000612778836000018360001b612dec565b905092915050565b6000612792836000018360001b6126f1565b905092915050565b60006127c6846000018460001b8473ffffffffffffffffffffffffffffffffffffffff1660001b612ed4565b90509392505050565b600081836000018054905011612830576040517f08c379a000000000000000000000000000000000000000000000000000000000815260040180806020018281038252602281526020018061343c6022913960400191505060405180910390fd5b82600001828154811061283f57fe5b9060005260206000200154905092915050565b600061287a836000018373ffffffffffffffffffffffffffffffffffffffff1660001b612dec565b905092915050565b600080828460000180549050116128e4576040517f08c379a00000000000000000000000000000000000000000000000000000000081526004018080602001828103825260228152602001806136956022913960400191505060405180910390fd5b60008460000184815481106128f557fe5b906000526020600020906002020190508060000154816001015492509250509250929050565b600080846001016000858152602001908152602001600020549050600081141583906129e2576040517f08c379a00000000000000000000000000000000000000000000000000000000081526004018080602001828103825283818151815260200191508051906020019080838360005b838110156129a757808201518184015260208101905061298c565b50505050905090810190601f1680156129d45780820380516001836020036101000a031916815260200191505b509250505060405180910390fd5b508460000160018203815481106129f557fe5b9060005260206000209060020201600101549150509392505050565b600081600001805490509050919050565b612a2c8383612fb0565b612a396000848484612a93565b612a8e576040517f08c379a00000000000000000000000000000000000000000000000000000000081526004018080602001828103825260328152602001806134b86032913960400191505060405180910390fd5b505050565b6000612ab48473ffffffffffffffffffffffffffffffffffffffff166131a4565b612ac15760019050612da7565b600060608573ffffffffffffffffffffffffffffffffffffffff1663150b7a0260e01b33898888604051602401808573ffffffffffffffffffffffffffffffffffffffff1673ffffffffffffffffffffffffffffffffffffffff1681526020018473ffffffffffffffffffffffffffffffffffffffff1673ffffffffffffffffffffffffffffffffffffffff16815260200183815260200180602001828103825283818151815260200191508051906020019080838360005b83811015612b95578082015181840152602081019050612b7a565b50505050905090810190601f168015612bc25780820380516001836020036101000a031916815260200191505b5095505050505050604051602081830303815290604052907bffffffffffffffffffffffffffffffffffffffffffffffffffffffff19166020820180517bffffffffffffffffffffffffffffffffffffffffffffffffffffffff83818316178352505050506040518082805190602001908083835b60208310612c5a5780518252602082019150602081019050602083039250612c37565b6001836020036101000a0380198251168184511680821785525050505050509050019150506000604051808303816000865af19150503d8060008114612cbc576040519150601f19603f3d011682016040523d82523d6000602084013e612cc1565b606091505b509150915081612d2f57600081511115612cde5780518082602001fd5b6040517f08c379a00000000000000000000000000000000000000000000000000000000081526004018080602001828103825260328152602001806134b86032913960400191505060405180910390fd5b6000818060200190516020811015612d4657600080fd5b8101908080519060200190929190505050905063150b7a0260e01b7bffffffffffffffffffffffffffffffffffffffffffffffffffffffff1916817bffffffffffffffffffffffffffffffffffffffffffffffffffffffff19161493505050505b949350505050565b6000612dc1836000018360001b6131ef565b905092915050565b600080836001016000848152602001908152602001600020541415905092915050565b60008083600101600084815260200190815260200160002054905060008114612ec85760006001820390506000600186600001805490500390506000866000018281548110612e3757fe5b9060005260206000200154905080876000018481548110612e5457fe5b9060005260206000200181905550600183018760010160008381526020019081526020016000208190555086600001805480612e8c57fe5b60019003818190600052602060002001600090559055866001016000878152602001908152602001600020600090556001945050505050612ece565b60009150505b92915050565b6000808460010160008581526020019081526020016000205490506000811415612f7b57846000016040518060400160405280868152602001858152509080600181540180825580915050600190039060005260206000209060020201600090919091909150600082015181600001556020820151816001015550508460000180549050856001016000868152602001908152602001600020819055506001915050612fa9565b82856000016001830381548110612f8e57fe5b90600052602060002090600202016001018190555060009150505b9392505050565b600073ffffffffffffffffffffffffffffffffffffffff168273ffffffffffffffffffffffffffffffffffffffff161415613053576040517f08c379a00000000000000000000000000000000000000000000000000000000081526004018080602001828103825260208152602001807f4552433732313a206d696e7420746f20746865207a65726f206164647265737381525060200191505060405180910390fd5b61305c81611ee0565b156130cf576040517f08c379a000000000000000000000000000000000000000000000000000000000815260040180806020018281038252601c8152602001807f4552433732313a20746f6b656e20616c7265616479206d696e7465640000000081525060200191505060405180910390fd5b6130db60008383612761565b61312c81600160008573ffffffffffffffffffffffffffffffffffffffff1673ffffffffffffffffffffffffffffffffffffffff16815260200190815260200160002061278090919063ffffffff16565b506131438183600261279a9092919063ffffffff16565b50808273ffffffffffffffffffffffffffffffffffffffff16600073ffffffffffffffffffffffffffffffffffffffff167fddf252ad1be2c89b69c2b068fc378daa952ba7f163c4a11628f55a4df523b3ef60405160405180910390a45050565b60008060007fc5d2460186f7233c927e7db2dcc703c0e500b653ca82273b7bfad8045d85a47060001b9050833f91508082141580156131e657506000801b8214155b92505050919050565b600080836001016000848152602001908152602001600020549050600081146132fc576000600182039050600060018660000180549050039050600086600001828154811061323a57fe5b906000526020600020906002020190508087600001848154811061325a57fe5b90600052602060002090600202016000820154816000015560018201548160010155905050600183018760010160008360000154815260200190815260200160002081905550866000018054806132ad57fe5b6001900381819060005260206000209060020201600080820160009055600182016000905550509055866001016000878152602001908152602001600020600090556001945050505050613302565b60009150505b92915050565b828054600181600116156101000203166002900490600052602060002090601f016020900481019282601f1061334957805160ff1916838001178555613377565b82800160010185558215613377579182015b8281111561337657825182559160200191906001019061335b565b5b50905061338491906133f1565b5090565b50805460018160011615610100020316600290046000825580601f106133ae57506133cd565b601f0160209004906000526020600020908101906133cc91906133f1565b5b50565b50805460008255906000526020600020908101906133ee9190613416565b50565b61341391905b8082111561340f5760008160009055506001016133f7565b5090565b90565b61343891905b8082111561343457600081600090555060010161341c565b5090565b9056fe456e756d657261626c655365743a20696e646578206f7574206f6620626f756e6473416363657373436f6e74726f6c3a2073656e646572206d75737420626520616e2061646d696e20746f206772616e7456657269666965644578697374656e63653a2070726f6f6620686173682063616e2774206265207a65726f4552433732313a207472616e7366657220746f206e6f6e20455243373231526563656976657220696d706c656d656e74657256657269666965644578697374656e63653a20796f7520617265206e6f74207065726d697474656420746f2061646420612070726f6f6656657269666965644578697374656e63653a20746869732070726f6f66206861736820616c7265616479206578697374734552433732313a207472616e7366657220746f20746865207a65726f20616464726573734552433732313a206f70657261746f7220717565727920666f72206e6f6e6578697374656e7420746f6b656e416363657373436f6e74726f6c3a2073656e646572206d75737420626520616e2061646d696e20746f207265766f6b654552433732313a20617070726f76652063616c6c6572206973206e6f74206f776e6572206e6f7220617070726f76656420666f7220616c6c56657269666965644578697374656e63653a20796f75206861766520616c726561647920636f6e6669726d656420746869732070726f6f664552433732313a2062616c616e636520717565727920666f7220746865207a65726f20616464726573734552433732313a206f776e657220717565727920666f72206e6f6e6578697374656e7420746f6b656e456e756d657261626c654d61703a20696e646578206f7574206f6620626f756e64734552433732313a20617070726f76656420717565727920666f72206e6f6e6578697374656e7420746f6b656e56657269666965644578697374656e63653a20796f7520617265206e6f74207065726d697474656420746f20636f6e6669726d20612070726f6f664552433732313a207472616e73666572206f6620746f6b656e2074686174206973206e6f74206f776e56657269666965644578697374656e63653a206275726e2063616c6c6572206973206e6f74206f776e6572206e6f7220617070726f7665644552433732313a20617070726f76616c20746f2063757272656e74206f776e65724552433732313a207472616e736665722063616c6c6572206973206e6f74206f776e6572206e6f7220617070726f76656456657269666965644578697374656e63653a2070726f6f66206279207468697320696420646f6573206e6f74206578697374416363657373436f6e74726f6c3a2063616e206f6e6c792072656e6f756e636520726f6c657320666f722073656c66a2646970667358221220c59379c6d978318a37020a848045b81cf6de0eb015558e561778387cf26200fa64736f6c63430006060033",
  "compiler": {
    "name": "solc",
    "version": "0.6.6+commit.6c089d02.Emscripten.clang",
    "optimizer": {
      "enabled": false,
      "runs": 200
    },
    "evmVersion": "petersburg"
  }
}